{
  "_format": "hh-sol-artifact-1",
  "contractName": "LuctqPass",
  "sourceName": "contracts/NFT/LuctqPass.sol",
  "abi": [
    {
      "inputs": [],
      "stateMutability": "nonpayable",
      "type": "constructor"
    },
    {
      "anonymous": false,
      "inputs": [
        {
          "indexed": true,
          "internalType": "address",
          "name": "owner",
          "type": "address"
        },
        {
          "indexed": true,
          "internalType": "address",
          "name": "approved",
          "type": "address"
        },
        {
          "indexed": true,
          "internalType": "uint256",
          "name": "tokenId",
          "type": "uint256"
        }
      ],
      "name": "Approval",
      "type": "event"
    },
    {
      "anonymous": false,
      "inputs": [
        {
          "indexed": true,
          "internalType": "address",
          "name": "owner",
          "type": "address"
        },
        {
          "indexed": true,
          "internalType": "address",
          "name": "operator",
          "type": "address"
        },
        {
          "indexed": false,
          "internalType": "bool",
          "name": "approved",
          "type": "bool"
        }
      ],
      "name": "ApprovalForAll",
      "type": "event"
    },
    {
      "anonymous": false,
      "inputs": [
        {
          "indexed": true,
          "internalType": "address",
          "name": "previousOwner",
          "type": "address"
        },
        {
          "indexed": true,
          "internalType": "address",
          "name": "newOwner",
          "type": "address"
        }
      ],
      "name": "OwnershipTransferred",
      "type": "event"
    },
    {
      "anonymous": false,
      "inputs": [
        {
          "indexed": true,
          "internalType": "address",
          "name": "from",
          "type": "address"
        },
        {
          "indexed": true,
          "internalType": "address",
          "name": "to",
          "type": "address"
        },
        {
          "indexed": true,
          "internalType": "uint256",
          "name": "tokenId",
          "type": "uint256"
        }
      ],
      "name": "Transfer",
      "type": "event"
    },
    {
      "inputs": [
        {
          "internalType": "address",
          "name": "to",
          "type": "address"
        },
        {
          "internalType": "uint256",
          "name": "tokenId",
          "type": "uint256"
        }
      ],
      "name": "approve",
      "outputs": [],
      "stateMutability": "nonpayable",
      "type": "function"
    },
    {
      "inputs": [
        {
          "internalType": "address",
          "name": "owner",
          "type": "address"
        }
      ],
      "name": "balanceOf",
      "outputs": [
        {
          "internalType": "uint256",
          "name": "",
          "type": "uint256"
        }
      ],
      "stateMutability": "view",
      "type": "function"
    },
    {
      "inputs": [
        {
          "internalType": "uint256",
          "name": "tokenId",
          "type": "uint256"
        }
      ],
      "name": "burnNFT",
      "outputs": [],
      "stateMutability": "nonpayable",
      "type": "function"
    },
    {
      "inputs": [
        {
          "internalType": "uint256",
          "name": "tokenId",
          "type": "uint256"
        }
      ],
      "name": "getApproved",
      "outputs": [
        {
          "internalType": "address",
          "name": "",
          "type": "address"
        }
      ],
      "stateMutability": "view",
      "type": "function"
    },
    {
      "inputs": [],
      "name": "isActiveMintPass",
      "outputs": [
        {
          "internalType": "bool",
          "name": "",
          "type": "bool"
        }
      ],
      "stateMutability": "view",
      "type": "function"
    },
    {
      "inputs": [
        {
          "internalType": "address",
          "name": "owner",
          "type": "address"
        },
        {
          "internalType": "address",
          "name": "operator",
          "type": "address"
        }
      ],
      "name": "isApprovedForAll",
      "outputs": [
        {
          "internalType": "bool",
          "name": "",
          "type": "bool"
        }
      ],
      "stateMutability": "view",
      "type": "function"
    },
    {
      "inputs": [],
      "name": "latestTokenId",
      "outputs": [
        {
          "internalType": "uint256",
          "name": "",
          "type": "uint256"
        }
      ],
      "stateMutability": "view",
      "type": "function"
    },
    {
      "inputs": [
        {
          "internalType": "bytes32[]",
          "name": "key",
          "type": "bytes32[]"
        }
      ],
      "name": "mintNFT",
      "outputs": [
        {
          "internalType": "uint256",
          "name": "",
          "type": "uint256"
        }
      ],
      "stateMutability": "nonpayable",
      "type": "function"
    },
    {
      "inputs": [],
      "name": "name",
      "outputs": [
        {
          "internalType": "string",
          "name": "",
          "type": "string"
        }
      ],
      "stateMutability": "view",
      "type": "function"
    },
    {
      "inputs": [],
      "name": "owner",
      "outputs": [
        {
          "internalType": "address",
          "name": "",
          "type": "address"
        }
      ],
      "stateMutability": "view",
      "type": "function"
    },
    {
      "inputs": [
        {
          "internalType": "uint256",
          "name": "tokenId",
          "type": "uint256"
        }
      ],
      "name": "ownerOf",
      "outputs": [
        {
          "internalType": "address",
          "name": "",
          "type": "address"
        }
      ],
      "stateMutability": "view",
      "type": "function"
    },
    {
      "inputs": [],
      "name": "renounceOwnership",
      "outputs": [],
      "stateMutability": "nonpayable",
      "type": "function"
    },
    {
      "inputs": [
        {
          "internalType": "address",
          "name": "from",
          "type": "address"
        },
        {
          "internalType": "address",
          "name": "to",
          "type": "address"
        },
        {
          "internalType": "uint256",
          "name": "tokenId",
          "type": "uint256"
        }
      ],
      "name": "safeTransferFrom",
      "outputs": [],
      "stateMutability": "nonpayable",
      "type": "function"
    },
    {
      "inputs": [
        {
          "internalType": "address",
          "name": "from",
          "type": "address"
        },
        {
          "internalType": "address",
          "name": "to",
          "type": "address"
        },
        {
          "internalType": "uint256",
          "name": "tokenId",
          "type": "uint256"
        },
        {
          "internalType": "bytes",
          "name": "data",
          "type": "bytes"
        }
      ],
      "name": "safeTransferFrom",
      "outputs": [],
      "stateMutability": "nonpayable",
      "type": "function"
    },
    {
      "inputs": [
        {
          "internalType": "address",
          "name": "operator",
          "type": "address"
        },
        {
          "internalType": "bool",
          "name": "approved",
          "type": "bool"
        }
      ],
      "name": "setApprovalForAll",
      "outputs": [],
      "stateMutability": "nonpayable",
      "type": "function"
    },
    {
      "inputs": [
        {
          "internalType": "string",
          "name": "baseURI_",
          "type": "string"
        }
      ],
      "name": "setBaseURI",
      "outputs": [],
      "stateMutability": "nonpayable",
      "type": "function"
    },
    {
      "inputs": [
        {
          "internalType": "uint256",
          "name": "tokenId",
          "type": "uint256"
        },
        {
          "internalType": "string",
          "name": "_tokenURI",
          "type": "string"
        }
      ],
      "name": "setTokenURI",
      "outputs": [
        {
          "internalType": "uint256",
          "name": "",
          "type": "uint256"
        }
      ],
      "stateMutability": "nonpayable",
      "type": "function"
    },
    {
      "inputs": [
        {
          "internalType": "bytes4",
          "name": "interfaceId",
          "type": "bytes4"
        }
      ],
      "name": "supportsInterface",
      "outputs": [
        {
          "internalType": "bool",
          "name": "",
          "type": "bool"
        }
      ],
      "stateMutability": "view",
      "type": "function"
    },
    {
      "inputs": [],
      "name": "symbol",
      "outputs": [
        {
          "internalType": "string",
          "name": "",
          "type": "string"
        }
      ],
      "stateMutability": "view",
      "type": "function"
    },
    {
      "inputs": [
        {
          "internalType": "uint256",
          "name": "index",
          "type": "uint256"
        }
      ],
      "name": "tokenByIndex",
      "outputs": [
        {
          "internalType": "uint256",
          "name": "",
          "type": "uint256"
        }
      ],
      "stateMutability": "view",
      "type": "function"
    },
    {
      "inputs": [
        {
          "internalType": "address",
          "name": "owner",
          "type": "address"
        },
        {
          "internalType": "uint256",
          "name": "index",
          "type": "uint256"
        }
      ],
      "name": "tokenOfOwnerByIndex",
      "outputs": [
        {
          "internalType": "uint256",
          "name": "",
          "type": "uint256"
        }
      ],
      "stateMutability": "view",
      "type": "function"
    },
    {
      "inputs": [
        {
          "internalType": "uint256",
          "name": "tokenId",
          "type": "uint256"
        }
      ],
      "name": "tokenURI",
      "outputs": [
        {
          "internalType": "string",
          "name": "",
          "type": "string"
        }
      ],
      "stateMutability": "view",
      "type": "function"
    },
    {
      "inputs": [],
      "name": "totalSupply",
      "outputs": [
        {
          "internalType": "uint256",
          "name": "",
          "type": "uint256"
        }
      ],
      "stateMutability": "view",
      "type": "function"
    },
    {
      "inputs": [
        {
          "internalType": "address",
          "name": "from",
          "type": "address"
        },
        {
          "internalType": "address",
          "name": "to",
          "type": "address"
        },
        {
          "internalType": "uint256",
          "name": "tokenId",
          "type": "uint256"
        }
      ],
      "name": "transferFrom",
      "outputs": [],
      "stateMutability": "nonpayable",
      "type": "function"
    },
    {
      "inputs": [
        {
          "internalType": "address",
          "name": "newOwner",
          "type": "address"
        }
      ],
      "name": "transferOwnership",
      "outputs": [],
      "stateMutability": "nonpayable",
      "type": "function"
    }
  ],
  "bytecode": "0x60806040526001600e60006101000a81548160ff0219169083151502179055503480156200002c57600080fd5b506040518060400160405280600f81526020017f4c75637461204d696e74205061737300000000000000000000000000000000008152506040518060400160405280600381526020017f4c4d5400000000000000000000000000000000000000000000000000000000008152508160009081620000aa91906200042d565b508060019081620000bc91906200042d565b505050620000df620000d3620000e560201b60201c565b620000ed60201b60201c565b62000514565b600033905090565b6000600a60009054906101000a900473ffffffffffffffffffffffffffffffffffffffff16905081600a60006101000a81548173ffffffffffffffffffffffffffffffffffffffff021916908373ffffffffffffffffffffffffffffffffffffffff1602179055508173ffffffffffffffffffffffffffffffffffffffff168173ffffffffffffffffffffffffffffffffffffffff167f8be0079c531659141344cd1fd0a4f28419497f9722a3daafe3b4186f6b6457e060405160405180910390a35050565b600081519050919050565b7f4e487b7100000000000000000000000000000000000000000000000000000000600052604160045260246000fd5b7f4e487b7100000000000000000000000000000000000000000000000000000000600052602260045260246000fd5b600060028204905060018216806200023557607f821691505b6020821081036200024b576200024a620001ed565b5b50919050565b60008190508160005260206000209050919050565b60006020601f8301049050919050565b600082821b905092915050565b600060088302620002b57fffffffffffffffffffffffffffffffffffffffffffffffffffffffffffffffff8262000276565b620002c1868362000276565b95508019841693508086168417925050509392505050565b6000819050919050565b6000819050919050565b60006200030e620003086200030284620002d9565b620002e3565b620002d9565b9050919050565b6000819050919050565b6200032a83620002ed565b62000342620003398262000315565b84845462000283565b825550505050565b600090565b620003596200034a565b620003668184846200031f565b505050565b5b818110156200038e57620003826000826200034f565b6001810190506200036c565b5050565b601f821115620003dd57620003a78162000251565b620003b28462000266565b81016020851015620003c2578190505b620003da620003d18562000266565b8301826200036b565b50505b505050565b600082821c905092915050565b60006200040260001984600802620003e2565b1980831691505092915050565b60006200041d8383620003ef565b9150826002028217905092915050565b6200043882620001b3565b67ffffffffffffffff811115620004545762000453620001be565b5b6200046082546200021c565b6200046d82828562000392565b600060209050601f831160018114620004a5576000841562000490578287015190505b6200049c85826200040f565b8655506200050c565b601f198416620004b58662000251565b60005b82811015620004df57848901518255600182019150602085019450602081019050620004b8565b86831015620004ff5784890151620004fb601f891682620003ef565b8355505b6001600288020188555050505b505050505050565b613a8e80620005246000396000f3fe608060405234801561001057600080fd5b50600436106101735760003560e01c80635b661039116100de5780638dae892011610097578063b88d4fde11610071578063b88d4fde1461045e578063c87b56dd1461047a578063e985e9c5146104aa578063f2fde38b146104da57610173565b80638dae89201461040657806395d89b4114610424578063a22cb4651461044257610173565b80635b661039146103305780636352211e1461036057806370a0823114610390578063715018a6146103c05780638c0e8349146103ca5780638da5cb5b146103e857610173565b806323b872dd1161013057806323b872dd146102605780632890e0d71461027c5780632f745c591461029857806342842e0e146102c85780634f6ccce7146102e457806355f804b31461031457610173565b806301ffc9a71461017857806306fdde03146101a8578063081812fc146101c6578063095ea7b3146101f6578063162094c41461021257806318160ddd14610242575b600080fd5b610192600480360381019061018d919061243b565b6104f6565b60405161019f9190612483565b60405180910390f35b6101b0610570565b6040516101bd919061252e565b60405180910390f35b6101e060048036038101906101db9190612586565b610602565b6040516101ed91906125f4565b60405180910390f35b610210600480360381019061020b919061263b565b610648565b005b61022c600480360381019061022791906127b0565b61075f565b604051610239919061281b565b60405180910390f35b61024a61077c565b604051610257919061281b565b60405180910390f35b61027a60048036038101906102759190612836565b610789565b005b61029660048036038101906102919190612586565b6107e9565b005b6102b260048036038101906102ad919061263b565b610845565b6040516102bf919061281b565b60405180910390f35b6102e260048036038101906102dd9190612836565b6108ea565b005b6102fe60048036038101906102f99190612586565b61090a565b60405161030b919061281b565b60405180910390f35b61032e60048036038101906103299190612889565b61097b565b005b61034a60048036038101906103459190612932565b610996565b604051610357919061281b565b60405180910390f35b61037a60048036038101906103759190612586565b61099e565b60405161038791906125f4565b60405180910390f35b6103aa60048036038101906103a5919061297f565b610a24565b6040516103b7919061281b565b60405180910390f35b6103c8610adb565b005b6103d2610aef565b6040516103df919061281b565b60405180910390f35b6103f0610b00565b6040516103fd91906125f4565b60405180910390f35b61040e610b2a565b60405161041b9190612483565b60405180910390f35b61042c610b3d565b604051610439919061252e565b60405180910390f35b61045c600480360381019061045791906129d8565b610bcf565b005b61047860048036038101906104739190612ab9565b610be5565b005b610494600480360381019061048f9190612586565b610c47565b6040516104a1919061252e565b60405180910390f35b6104c460048036038101906104bf9190612b3c565b610d92565b6040516104d19190612483565b60405180910390f35b6104f460048036038101906104ef919061297f565b610e26565b005b60007f780e9d63000000000000000000000000000000000000000000000000000000007bffffffffffffffffffffffffffffffffffffffffffffffffffffffff1916827bffffffffffffffffffffffffffffffffffffffffffffffffffffffff19161480610569575061056882610ea9565b5b9050919050565b60606000805461057f90612bab565b80601f01602080910402602001604051908101604052809291908181526020018280546105ab90612bab565b80156105f85780601f106105cd576101008083540402835291602001916105f8565b820191906000526020600020905b8154815290600101906020018083116105db57829003601f168201915b5050505050905090565b600061060d82610f8b565b6004600083815260200190815260200160002060009054906101000a900473ffffffffffffffffffffffffffffffffffffffff169050919050565b60006106538261099e565b90508073ffffffffffffffffffffffffffffffffffffffff168373ffffffffffffffffffffffffffffffffffffffff16036106c3576040517f08c379a00000000000000000000000000000000000000000000000000000000081526004016106ba90612c4e565b60405180910390fd5b8073ffffffffffffffffffffffffffffffffffffffff166106e2610fd6565b73ffffffffffffffffffffffffffffffffffffffff16148061071157506107108161070b610fd6565b610d92565b5b610750576040517f08c379a000000000000000000000000000000000000000000000000000000000815260040161074790612ce0565b60405180910390fd5b61075a8383610fde565b505050565b6000610769611097565b6107738383611115565b82905092915050565b6000600880549050905090565b61079a610794610fd6565b82611182565b6107d9576040517f08c379a00000000000000000000000000000000000000000000000000000000081526004016107d090612d72565b60405180910390fd5b6107e4838383611217565b505050565b6107fa6107f4610fd6565b82611182565b610839576040517f08c379a000000000000000000000000000000000000000000000000000000000815260040161083090612e04565b60405180910390fd5b61084281611510565b50565b600061085083610a24565b8210610891576040517f08c379a000000000000000000000000000000000000000000000000000000000815260040161088890612e96565b60405180910390fd5b600660008473ffffffffffffffffffffffffffffffffffffffff1673ffffffffffffffffffffffffffffffffffffffff168152602001908152602001600020600083815260200190815260200160002054905092915050565b61090583838360405180602001604052806000815250610be5565b505050565b600061091461077c565b8210610955576040517f08c379a000000000000000000000000000000000000000000000000000000000815260040161094c90612f28565b60405180910390fd5b6008828154811061096957610968612f48565b5b90600052602060002001549050919050565b610983611097565b80600f90816109929190613123565b5050565b600092915050565b6000806109aa8361165e565b9050600073ffffffffffffffffffffffffffffffffffffffff168173ffffffffffffffffffffffffffffffffffffffff1603610a1b576040517f08c379a0000000000000000000000000000000000000000000000000000000008152600401610a1290613241565b60405180910390fd5b80915050919050565b60008073ffffffffffffffffffffffffffffffffffffffff168273ffffffffffffffffffffffffffffffffffffffff1603610a94576040517f08c379a0000000000000000000000000000000000000000000000000000000008152600401610a8b906132d3565b60405180910390fd5b600360008373ffffffffffffffffffffffffffffffffffffffff1673ffffffffffffffffffffffffffffffffffffffff168152602001908152602001600020549050919050565b610ae3611097565b610aed600061169b565b565b6000610afb600b611761565b905090565b6000600a60009054906101000a900473ffffffffffffffffffffffffffffffffffffffff16905090565b600e60009054906101000a900460ff1681565b606060018054610b4c90612bab565b80601f0160208091040260200160405190810160405280929190818152602001828054610b7890612bab565b8015610bc55780601f10610b9a57610100808354040283529160200191610bc5565b820191906000526020600020905b815481529060010190602001808311610ba857829003601f168201915b5050505050905090565b610be1610bda610fd6565b838361176f565b5050565b610bf6610bf0610fd6565b83611182565b610c35576040517f08c379a0000000000000000000000000000000000000000000000000000000008152600401610c2c90612d72565b60405180910390fd5b610c41848484846118db565b50505050565b6060610c5282611937565b610c91576040517f08c379a0000000000000000000000000000000000000000000000000000000008152600401610c8890613365565b60405180910390fd5b6000600c60008481526020019081526020016000208054610cb190612bab565b80601f0160208091040260200160405190810160405280929190818152602001828054610cdd90612bab565b8015610d2a5780601f10610cff57610100808354040283529160200191610d2a565b820191906000526020600020905b815481529060010190602001808311610d0d57829003601f168201915b505050505090506000610d3b611978565b905060008151118015610d4f575060008251145b15610d875780610d5e85611a0a565b604051602001610d6f92919061340d565b60405160208183030381529060405292505050610d8d565b81925050505b919050565b6000600560008473ffffffffffffffffffffffffffffffffffffffff1673ffffffffffffffffffffffffffffffffffffffff16815260200190815260200160002060008373ffffffffffffffffffffffffffffffffffffffff1673ffffffffffffffffffffffffffffffffffffffff16815260200190815260200160002060009054906101000a900460ff16905092915050565b610e2e611097565b600073ffffffffffffffffffffffffffffffffffffffff168173ffffffffffffffffffffffffffffffffffffffff1603610e9d576040517f08c379a0000000000000000000000000000000000000000000000000000000008152600401610e94906134ae565b60405180910390fd5b610ea68161169b565b50565b60007f80ac58cd000000000000000000000000000000000000000000000000000000007bffffffffffffffffffffffffffffffffffffffffffffffffffffffff1916827bffffffffffffffffffffffffffffffffffffffffffffffffffffffff19161480610f7457507f5b5e139f000000000000000000000000000000000000000000000000000000007bffffffffffffffffffffffffffffffffffffffffffffffffffffffff1916827bffffffffffffffffffffffffffffffffffffffffffffffffffffffff1916145b80610f845750610f8382611ad8565b5b9050919050565b610f9481611937565b610fd3576040517f08c379a0000000000000000000000000000000000000000000000000000000008152600401610fca90613241565b60405180910390fd5b50565b600033905090565b816004600083815260200190815260200160002060006101000a81548173ffffffffffffffffffffffffffffffffffffffff021916908373ffffffffffffffffffffffffffffffffffffffff160217905550808273ffffffffffffffffffffffffffffffffffffffff166110518361099e565b73ffffffffffffffffffffffffffffffffffffffff167f8c5be1e5ebec7d5bd14f71427d1e84f3dd0314c0f7b2291e5b200ac8c7c3b92560405160405180910390a45050565b61109f610fd6565b73ffffffffffffffffffffffffffffffffffffffff166110bd610b00565b73ffffffffffffffffffffffffffffffffffffffff1614611113576040517f08c379a000000000000000000000000000000000000000000000000000000000815260040161110a9061351a565b60405180910390fd5b565b61111e82611937565b61115d576040517f08c379a0000000000000000000000000000000000000000000000000000000008152600401611154906135ac565b60405180910390fd5b80600c6000848152602001908152602001600020908161117d9190613123565b505050565b60008061118e8361099e565b90508073ffffffffffffffffffffffffffffffffffffffff168473ffffffffffffffffffffffffffffffffffffffff1614806111d057506111cf8185610d92565b5b8061120e57508373ffffffffffffffffffffffffffffffffffffffff166111f684610602565b73ffffffffffffffffffffffffffffffffffffffff16145b91505092915050565b8273ffffffffffffffffffffffffffffffffffffffff166112378261099e565b73ffffffffffffffffffffffffffffffffffffffff161461128d576040517f08c379a00000000000000000000000000000000000000000000000000000000081526004016112849061363e565b60405180910390fd5b600073ffffffffffffffffffffffffffffffffffffffff168273ffffffffffffffffffffffffffffffffffffffff16036112fc576040517f08c379a00000000000000000000000000000000000000000000000000000000081526004016112f3906136d0565b60405180910390fd5b6113098383836001611b42565b8273ffffffffffffffffffffffffffffffffffffffff166113298261099e565b73ffffffffffffffffffffffffffffffffffffffff161461137f576040517f08c379a00000000000000000000000000000000000000000000000000000000081526004016113769061363e565b60405180910390fd5b6004600082815260200190815260200160002060006101000a81549073ffffffffffffffffffffffffffffffffffffffff02191690556001600360008573ffffffffffffffffffffffffffffffffffffffff1673ffffffffffffffffffffffffffffffffffffffff168152602001908152602001600020600082825403925050819055506001600360008473ffffffffffffffffffffffffffffffffffffffff1673ffffffffffffffffffffffffffffffffffffffff16815260200190815260200160002060008282540192505081905550816002600083815260200190815260200160002060006101000a81548173ffffffffffffffffffffffffffffffffffffffff021916908373ffffffffffffffffffffffffffffffffffffffff160217905550808273ffffffffffffffffffffffffffffffffffffffff168473ffffffffffffffffffffffffffffffffffffffff167fddf252ad1be2c89b69c2b068fc378daa952ba7f163c4a11628f55a4df523b3ef60405160405180910390a461150b8383836001611ca0565b505050565b600061151b8261099e565b905061152b816000846001611b42565b6115348261099e565b90506004600083815260200190815260200160002060006101000a81549073ffffffffffffffffffffffffffffffffffffffff02191690556001600360008373ffffffffffffffffffffffffffffffffffffffff1673ffffffffffffffffffffffffffffffffffffffff168152602001908152602001600020600082825403925050819055506002600083815260200190815260200160002060006101000a81549073ffffffffffffffffffffffffffffffffffffffff021916905581600073ffffffffffffffffffffffffffffffffffffffff168273ffffffffffffffffffffffffffffffffffffffff167fddf252ad1be2c89b69c2b068fc378daa952ba7f163c4a11628f55a4df523b3ef60405160405180910390a461165a816000846001611ca0565b5050565b60006002600083815260200190815260200160002060009054906101000a900473ffffffffffffffffffffffffffffffffffffffff169050919050565b6000600a60009054906101000a900473ffffffffffffffffffffffffffffffffffffffff16905081600a60006101000a81548173ffffffffffffffffffffffffffffffffffffffff021916908373ffffffffffffffffffffffffffffffffffffffff1602179055508173ffffffffffffffffffffffffffffffffffffffff168173ffffffffffffffffffffffffffffffffffffffff167f8be0079c531659141344cd1fd0a4f28419497f9722a3daafe3b4186f6b6457e060405160405180910390a35050565b600081600001549050919050565b8173ffffffffffffffffffffffffffffffffffffffff168373ffffffffffffffffffffffffffffffffffffffff16036117dd576040517f08c379a00000000000000000000000000000000000000000000000000000000081526004016117d49061373c565b60405180910390fd5b80600560008573ffffffffffffffffffffffffffffffffffffffff1673ffffffffffffffffffffffffffffffffffffffff16815260200190815260200160002060008473ffffffffffffffffffffffffffffffffffffffff1673ffffffffffffffffffffffffffffffffffffffff16815260200190815260200160002060006101000a81548160ff0219169083151502179055508173ffffffffffffffffffffffffffffffffffffffff168373ffffffffffffffffffffffffffffffffffffffff167f17307eab39ab6107e8899845ad3d59bd9653f200f220920489ca2b5937696c31836040516118ce9190612483565b60405180910390a3505050565b6118e6848484611217565b6118f284848484611ca6565b611931576040517f08c379a0000000000000000000000000000000000000000000000000000000008152600401611928906137ce565b60405180910390fd5b50505050565b60008073ffffffffffffffffffffffffffffffffffffffff166119598361165e565b73ffffffffffffffffffffffffffffffffffffffff1614159050919050565b6060600f805461198790612bab565b80601f01602080910402602001604051908101604052809291908181526020018280546119b390612bab565b8015611a005780601f106119d557610100808354040283529160200191611a00565b820191906000526020600020905b8154815290600101906020018083116119e357829003601f168201915b5050505050905090565b606060006001611a1984611e2d565b01905060008167ffffffffffffffff811115611a3857611a37612685565b5b6040519080825280601f01601f191660200182016040528015611a6a5781602001600182028036833780820191505090505b509050600082602001820190505b600115611acd578080600190039150507f3031323334353637383961626364656600000000000000000000000000000000600a86061a8153600a8581611ac157611ac06137ee565b5b04945060008503611a78575b819350505050919050565b60007f01ffc9a7000000000000000000000000000000000000000000000000000000007bffffffffffffffffffffffffffffffffffffffffffffffffffffffff1916827bffffffffffffffffffffffffffffffffffffffffffffffffffffffff1916149050919050565b611b4e84848484611f80565b6001811115611b92576040517f08c379a0000000000000000000000000000000000000000000000000000000008152600401611b899061388f565b60405180910390fd5b6000829050600073ffffffffffffffffffffffffffffffffffffffff168573ffffffffffffffffffffffffffffffffffffffff1603611bd957611bd4816120a6565b611c18565b8373ffffffffffffffffffffffffffffffffffffffff168573ffffffffffffffffffffffffffffffffffffffff1614611c1757611c1685826120ef565b5b5b600073ffffffffffffffffffffffffffffffffffffffff168473ffffffffffffffffffffffffffffffffffffffff1603611c5a57611c558161225c565b611c99565b8473ffffffffffffffffffffffffffffffffffffffff168473ffffffffffffffffffffffffffffffffffffffff1614611c9857611c97848261232d565b5b5b5050505050565b50505050565b6000611cc78473ffffffffffffffffffffffffffffffffffffffff166123ac565b15611e20578373ffffffffffffffffffffffffffffffffffffffff1663150b7a02611cf0610fd6565b8786866040518563ffffffff1660e01b8152600401611d129493929190613904565b6020604051808303816000875af1925050508015611d4e57506040513d601f19601f82011682018060405250810190611d4b9190613965565b60015b611dd0573d8060008114611d7e576040519150601f19603f3d011682016040523d82523d6000602084013e611d83565b606091505b506000815103611dc8576040517f08c379a0000000000000000000000000000000000000000000000000000000008152600401611dbf906137ce565b60405180910390fd5b805181602001fd5b63150b7a0260e01b7bffffffffffffffffffffffffffffffffffffffffffffffffffffffff1916817bffffffffffffffffffffffffffffffffffffffffffffffffffffffff191614915050611e25565b600190505b949350505050565b600080600090507a184f03e93ff9f4daa797ed6e38ed64bf6a1f0100000000000000008310611e8b577a184f03e93ff9f4daa797ed6e38ed64bf6a1f0100000000000000008381611e8157611e806137ee565b5b0492506040810190505b6d04ee2d6d415b85acef81000000008310611ec8576d04ee2d6d415b85acef81000000008381611ebe57611ebd6137ee565b5b0492506020810190505b662386f26fc100008310611ef757662386f26fc100008381611eed57611eec6137ee565b5b0492506010810190505b6305f5e1008310611f20576305f5e1008381611f1657611f156137ee565b5b0492506008810190505b6127108310611f45576127108381611f3b57611f3a6137ee565b5b0492506004810190505b60648310611f685760648381611f5e57611f5d6137ee565b5b0492506002810190505b600a8310611f77576001810190505b80915050919050565b60018111156120a057600073ffffffffffffffffffffffffffffffffffffffff168473ffffffffffffffffffffffffffffffffffffffff16146120145780600360008673ffffffffffffffffffffffffffffffffffffffff1673ffffffffffffffffffffffffffffffffffffffff168152602001908152602001600020600082825461200c91906139c1565b925050819055505b600073ffffffffffffffffffffffffffffffffffffffff168373ffffffffffffffffffffffffffffffffffffffff161461209f5780600360008573ffffffffffffffffffffffffffffffffffffffff1673ffffffffffffffffffffffffffffffffffffffff168152602001908152602001600020600082825461209791906139f5565b925050819055505b5b50505050565b6008805490506009600083815260200190815260200160002081905550600881908060018154018082558091505060019003906000526020600020016000909190919091505550565b600060016120fc84610a24565b61210691906139c1565b90506000600760008481526020019081526020016000205490508181146121eb576000600660008673ffffffffffffffffffffffffffffffffffffffff1673ffffffffffffffffffffffffffffffffffffffff168152602001908152602001600020600084815260200190815260200160002054905080600660008773ffffffffffffffffffffffffffffffffffffffff1673ffffffffffffffffffffffffffffffffffffffff168152602001908152602001600020600084815260200190815260200160002081905550816007600083815260200190815260200160002081905550505b6007600084815260200190815260200160002060009055600660008573ffffffffffffffffffffffffffffffffffffffff1673ffffffffffffffffffffffffffffffffffffffff16815260200190815260200160002060008381526020019081526020016000206000905550505050565b6000600160088054905061227091906139c1565b90506000600960008481526020019081526020016000205490506000600883815481106122a05761229f612f48565b5b9060005260206000200154905080600883815481106122c2576122c1612f48565b5b90600052602060002001819055508160096000838152602001908152602001600020819055506009600085815260200190815260200160002060009055600880548061231157612310613a29565b5b6001900381819060005260206000200160009055905550505050565b600061233883610a24565b905081600660008573ffffffffffffffffffffffffffffffffffffffff1673ffffffffffffffffffffffffffffffffffffffff168152602001908152602001600020600083815260200190815260200160002081905550806007600084815260200190815260200160002081905550505050565b6000808273ffffffffffffffffffffffffffffffffffffffff163b119050919050565b6000604051905090565b600080fd5b600080fd5b60007fffffffff0000000000000000000000000000000000000000000000000000000082169050919050565b612418816123e3565b811461242357600080fd5b50565b6000813590506124358161240f565b92915050565b600060208284031215612451576124506123d9565b5b600061245f84828501612426565b91505092915050565b60008115159050919050565b61247d81612468565b82525050565b60006020820190506124986000830184612474565b92915050565b600081519050919050565b600082825260208201905092915050565b60005b838110156124d85780820151818401526020810190506124bd565b60008484015250505050565b6000601f19601f8301169050919050565b60006125008261249e565b61250a81856124a9565b935061251a8185602086016124ba565b612523816124e4565b840191505092915050565b6000602082019050818103600083015261254881846124f5565b905092915050565b6000819050919050565b61256381612550565b811461256e57600080fd5b50565b6000813590506125808161255a565b92915050565b60006020828403121561259c5761259b6123d9565b5b60006125aa84828501612571565b91505092915050565b600073ffffffffffffffffffffffffffffffffffffffff82169050919050565b60006125de826125b3565b9050919050565b6125ee816125d3565b82525050565b600060208201905061260960008301846125e5565b92915050565b612618816125d3565b811461262357600080fd5b50565b6000813590506126358161260f565b92915050565b60008060408385031215612652576126516123d9565b5b600061266085828601612626565b925050602061267185828601612571565b9150509250929050565b600080fd5b600080fd5b7f4e487b7100000000000000000000000000000000000000000000000000000000600052604160045260246000fd5b6126bd826124e4565b810181811067ffffffffffffffff821117156126dc576126db612685565b5b80604052505050565b60006126ef6123cf565b90506126fb82826126b4565b919050565b600067ffffffffffffffff82111561271b5761271a612685565b5b612724826124e4565b9050602081019050919050565b82818337600083830152505050565b600061275361274e84612700565b6126e5565b90508281526020810184848401111561276f5761276e612680565b5b61277a848285612731565b509392505050565b600082601f8301126127975761279661267b565b5b81356127a7848260208601612740565b91505092915050565b600080604083850312156127c7576127c66123d9565b5b60006127d585828601612571565b925050602083013567ffffffffffffffff8111156127f6576127f56123de565b5b61280285828601612782565b9150509250929050565b61281581612550565b82525050565b6000602082019050612830600083018461280c565b92915050565b60008060006060848603121561284f5761284e6123d9565b5b600061285d86828701612626565b935050602061286e86828701612626565b925050604061287f86828701612571565b9150509250925092565b60006020828403121561289f5761289e6123d9565b5b600082013567ffffffffffffffff8111156128bd576128bc6123de565b5b6128c984828501612782565b91505092915050565b600080fd5b600080fd5b60008083601f8401126128f2576128f161267b565b5b8235905067ffffffffffffffff81111561290f5761290e6128d2565b5b60208301915083602082028301111561292b5761292a6128d7565b5b9250929050565b60008060208385031215612949576129486123d9565b5b600083013567ffffffffffffffff811115612967576129666123de565b5b612973858286016128dc565b92509250509250929050565b600060208284031215612995576129946123d9565b5b60006129a384828501612626565b91505092915050565b6129b581612468565b81146129c057600080fd5b50565b6000813590506129d2816129ac565b92915050565b600080604083850312156129ef576129ee6123d9565b5b60006129fd85828601612626565b9250506020612a0e858286016129c3565b9150509250929050565b600067ffffffffffffffff821115612a3357612a32612685565b5b612a3c826124e4565b9050602081019050919050565b6000612a5c612a5784612a18565b6126e5565b905082815260208101848484011115612a7857612a77612680565b5b612a83848285612731565b509392505050565b600082601f830112612aa057612a9f61267b565b5b8135612ab0848260208601612a49565b91505092915050565b60008060008060808587031215612ad357612ad26123d9565b5b6000612ae187828801612626565b9450506020612af287828801612626565b9350506040612b0387828801612571565b925050606085013567ffffffffffffffff811115612b2457612b236123de565b5b612b3087828801612a8b565b91505092959194509250565b60008060408385031215612b5357612b526123d9565b5b6000612b6185828601612626565b9250506020612b7285828601612626565b9150509250929050565b7f4e487b7100000000000000000000000000000000000000000000000000000000600052602260045260246000fd5b60006002820490506001821680612bc357607f821691505b602082108103612bd657612bd5612b7c565b5b50919050565b7f4552433732313a20617070726f76616c20746f2063757272656e74206f776e6560008201527f7200000000000000000000000000000000000000000000000000000000000000602082015250565b6000612c386021836124a9565b9150612c4382612bdc565b604082019050919050565b60006020820190508181036000830152612c6781612c2b565b9050919050565b7f4552433732313a20617070726f76652063616c6c6572206973206e6f7420746f60008201527f6b656e206f776e6572206f7220617070726f76656420666f7220616c6c000000602082015250565b6000612cca603d836124a9565b9150612cd582612c6e565b604082019050919050565b60006020820190508181036000830152612cf981612cbd565b9050919050565b7f4552433732313a2063616c6c6572206973206e6f7420746f6b656e206f776e6560008201527f72206f7220617070726f76656400000000000000000000000000000000000000602082015250565b6000612d5c602d836124a9565b9150612d6782612d00565b604082019050919050565b60006020820190508181036000830152612d8b81612d4f565b9050919050565b7f4552433732314275726e61626c653a2063616c6c6572206973206e6f74206f7760008201527f6e6572206e6f7220617070726f76656400000000000000000000000000000000602082015250565b6000612dee6030836124a9565b9150612df982612d92565b604082019050919050565b60006020820190508181036000830152612e1d81612de1565b9050919050565b7f455243373231456e756d657261626c653a206f776e657220696e646578206f7560008201527f74206f6620626f756e6473000000000000000000000000000000000000000000602082015250565b6000612e80602b836124a9565b9150612e8b82612e24565b604082019050919050565b60006020820190508181036000830152612eaf81612e73565b9050919050565b7f455243373231456e756d657261626c653a20676c6f62616c20696e646578206f60008201527f7574206f6620626f756e64730000000000000000000000000000000000000000602082015250565b6000612f12602c836124a9565b9150612f1d82612eb6565b604082019050919050565b60006020820190508181036000830152612f4181612f05565b9050919050565b7f4e487b7100000000000000000000000000000000000000000000000000000000600052603260045260246000fd5b60008190508160005260206000209050919050565b60006020601f8301049050919050565b600082821b905092915050565b600060088302612fd97fffffffffffffffffffffffffffffffffffffffffffffffffffffffffffffffff82612f9c565b612fe38683612f9c565b95508019841693508086168417925050509392505050565b6000819050919050565b600061302061301b61301684612550565b612ffb565b612550565b9050919050565b6000819050919050565b61303a83613005565b61304e61304682613027565b848454612fa9565b825550505050565b600090565b613063613056565b61306e818484613031565b505050565b5b818110156130925761308760008261305b565b600181019050613074565b5050565b601f8211156130d7576130a881612f77565b6130b184612f8c565b810160208510156130c0578190505b6130d46130cc85612f8c565b830182613073565b50505b505050565b600082821c905092915050565b60006130fa600019846008026130dc565b1980831691505092915050565b600061311383836130e9565b9150826002028217905092915050565b61312c8261249e565b67ffffffffffffffff81111561314557613144612685565b5b61314f8254612bab565b61315a828285613096565b600060209050601f83116001811461318d576000841561317b578287015190505b6131858582613107565b8655506131ed565b601f19841661319b86612f77565b60005b828110156131c35784890151825560018201915060208501945060208101905061319e565b868310156131e057848901516131dc601f8916826130e9565b8355505b6001600288020188555050505b505050505050565b7f4552433732313a20696e76616c696420746f6b656e2049440000000000000000600082015250565b600061322b6018836124a9565b9150613236826131f5565b602082019050919050565b6000602082019050818103600083015261325a8161321e565b9050919050565b7f4552433732313a2061646472657373207a65726f206973206e6f74206120766160008201527f6c6964206f776e65720000000000000000000000000000000000000000000000602082015250565b60006132bd6029836124a9565b91506132c882613261565b604082019050919050565b600060208201905081810360008301526132ec816132b0565b9050919050565b7f4552433732314d657461646174613a2055524920717565727920666f72206e6f60008201527f6e6578697374656e7420746f6b656e0000000000000000000000000000000000602082015250565b600061334f602f836124a9565b915061335a826132f3565b604082019050919050565b6000602082019050818103600083015261337e81613342565b9050919050565b600081905092915050565b600061339b8261249e565b6133a58185613385565b93506133b58185602086016124ba565b80840191505092915050565b7f2e6a736f6e000000000000000000000000000000000000000000000000000000600082015250565b60006133f7600583613385565b9150613402826133c1565b600582019050919050565b60006134198285613390565b91506134258284613390565b9150613430826133ea565b91508190509392505050565b7f4f776e61626c653a206e6577206f776e657220697320746865207a65726f206160008201527f6464726573730000000000000000000000000000000000000000000000000000602082015250565b60006134986026836124a9565b91506134a38261343c565b604082019050919050565b600060208201905081810360008301526134c78161348b565b9050919050565b7f4f776e61626c653a2063616c6c6572206973206e6f7420746865206f776e6572600082015250565b60006135046020836124a9565b915061350f826134ce565b602082019050919050565b60006020820190508181036000830152613533816134f7565b9050919050565b7f4552433732314d657461646174613a2055524920736574206f66206e6f6e657860008201527f697374656e7420746f6b656e0000000000000000000000000000000000000000602082015250565b6000613596602c836124a9565b91506135a18261353a565b604082019050919050565b600060208201905081810360008301526135c581613589565b9050919050565b7f4552433732313a207472616e736665722066726f6d20696e636f72726563742060008201527f6f776e6572000000000000000000000000000000000000000000000000000000602082015250565b60006136286025836124a9565b9150613633826135cc565b604082019050919050565b600060208201905081810360008301526136578161361b565b9050919050565b7f4552433732313a207472616e7366657220746f20746865207a65726f2061646460008201527f7265737300000000000000000000000000000000000000000000000000000000602082015250565b60006136ba6024836124a9565b91506136c58261365e565b604082019050919050565b600060208201905081810360008301526136e9816136ad565b9050919050565b7f4552433732313a20617070726f766520746f2063616c6c657200000000000000600082015250565b60006137266019836124a9565b9150613731826136f0565b602082019050919050565b6000602082019050818103600083015261375581613719565b9050919050565b7f4552433732313a207472616e7366657220746f206e6f6e20455243373231526560008201527f63656976657220696d706c656d656e7465720000000000000000000000000000602082015250565b60006137b86032836124a9565b91506137c38261375c565b604082019050919050565b600060208201905081810360008301526137e7816137ab565b9050919050565b7f4e487b7100000000000000000000000000000000000000000000000000000000600052601260045260246000fd5b7f455243373231456e756d657261626c653a20636f6e736563757469766520747260008201527f616e7366657273206e6f7420737570706f727465640000000000000000000000602082015250565b60006138796035836124a9565b91506138848261381d565b604082019050919050565b600060208201905081810360008301526138a88161386c565b9050919050565b600081519050919050565b600082825260208201905092915050565b60006138d6826138af565b6138e081856138ba565b93506138f08185602086016124ba565b6138f9816124e4565b840191505092915050565b600060808201905061391960008301876125e5565b61392660208301866125e5565b613933604083018561280c565b818103606083015261394581846138cb565b905095945050505050565b60008151905061395f8161240f565b92915050565b60006020828403121561397b5761397a6123d9565b5b600061398984828501613950565b91505092915050565b7f4e487b7100000000000000000000000000000000000000000000000000000000600052601160045260246000fd5b60006139cc82612550565b91506139d783612550565b92508282039050818111156139ef576139ee613992565b5b92915050565b6000613a0082612550565b9150613a0b83612550565b9250828201905080821115613a2357613a22613992565b5b92915050565b7f4e487b7100000000000000000000000000000000000000000000000000000000600052603160045260246000fdfea26469706673582212201c44a510793b16d5b4a5ac738edac438d38a42c695dd725d6b9ceafc9e6bdfd264736f6c63430008110033",
  "linkReferences": {},
  "deployedLinkReferences": {}
}