{
  "_format": "hh-sol-artifact-1",
  "contractName": "Luctq",
  "sourceName": "contracts/NFT/Luctq.sol",
  "abi": [
    {
      "inputs": [],
      "stateMutability": "nonpayable",
      "type": "constructor"
    },
    {
      "anonymous": false,
      "inputs": [
        {
          "indexed": true,
          "internalType": "address",
          "name": "owner",
          "type": "address"
        },
        {
          "indexed": true,
          "internalType": "address",
          "name": "approved",
          "type": "address"
        },
        {
          "indexed": true,
          "internalType": "uint256",
          "name": "tokenId",
          "type": "uint256"
        }
      ],
      "name": "Approval",
      "type": "event"
    },
    {
      "anonymous": false,
      "inputs": [
        {
          "indexed": true,
          "internalType": "address",
          "name": "owner",
          "type": "address"
        },
        {
          "indexed": true,
          "internalType": "address",
          "name": "operator",
          "type": "address"
        },
        {
          "indexed": false,
          "internalType": "bool",
          "name": "approved",
          "type": "bool"
        }
      ],
      "name": "ApprovalForAll",
      "type": "event"
    },
    {
      "anonymous": false,
      "inputs": [
        {
          "indexed": true,
          "internalType": "address",
          "name": "previousOwner",
          "type": "address"
        },
        {
          "indexed": true,
          "internalType": "address",
          "name": "newOwner",
          "type": "address"
        }
      ],
      "name": "OwnershipTransferred",
      "type": "event"
    },
    {
      "anonymous": false,
      "inputs": [
        {
          "indexed": true,
          "internalType": "address",
          "name": "from",
          "type": "address"
        },
        {
          "indexed": true,
          "internalType": "address",
          "name": "to",
          "type": "address"
        },
        {
          "indexed": true,
          "internalType": "uint256",
          "name": "tokenId",
          "type": "uint256"
        }
      ],
      "name": "Transfer",
      "type": "event"
    },
    {
      "inputs": [
        {
          "internalType": "address",
          "name": "",
          "type": "address"
        }
      ],
      "name": "_approveOperators",
      "outputs": [
        {
          "internalType": "bool",
          "name": "",
          "type": "bool"
        }
      ],
      "stateMutability": "view",
      "type": "function"
    },
    {
      "inputs": [
        {
          "internalType": "address",
          "name": "to",
          "type": "address"
        },
        {
          "internalType": "uint256",
          "name": "tokenId",
          "type": "uint256"
        }
      ],
      "name": "approve",
      "outputs": [],
      "stateMutability": "nonpayable",
      "type": "function"
    },
    {
      "inputs": [
        {
          "internalType": "address",
          "name": "owner",
          "type": "address"
        }
      ],
      "name": "balanceOf",
      "outputs": [
        {
          "internalType": "uint256",
          "name": "",
          "type": "uint256"
        }
      ],
      "stateMutability": "view",
      "type": "function"
    },
    {
      "inputs": [
        {
          "internalType": "uint256",
          "name": "tokenId",
          "type": "uint256"
        }
      ],
      "name": "burnNFT",
      "outputs": [],
      "stateMutability": "nonpayable",
      "type": "function"
    },
    {
      "inputs": [
        {
          "internalType": "uint256",
          "name": "tokenId",
          "type": "uint256"
        }
      ],
      "name": "getApproved",
      "outputs": [
        {
          "internalType": "address",
          "name": "",
          "type": "address"
        }
      ],
      "stateMutability": "view",
      "type": "function"
    },
    {
      "inputs": [
        {
          "internalType": "address",
          "name": "owner",
          "type": "address"
        },
        {
          "internalType": "address",
          "name": "operator",
          "type": "address"
        }
      ],
      "name": "isApprovedForAll",
      "outputs": [
        {
          "internalType": "bool",
          "name": "",
          "type": "bool"
        }
      ],
      "stateMutability": "view",
      "type": "function"
    },
    {
      "inputs": [
        {
          "internalType": "uint256",
          "name": "tokenId",
          "type": "uint256"
        }
      ],
      "name": "isContentOwned",
      "outputs": [
        {
          "internalType": "bool",
          "name": "",
          "type": "bool"
        }
      ],
      "stateMutability": "view",
      "type": "function"
    },
    {
      "inputs": [],
      "name": "lastestTokenId",
      "outputs": [
        {
          "internalType": "uint256",
          "name": "",
          "type": "uint256"
        }
      ],
      "stateMutability": "view",
      "type": "function"
    },
    {
      "inputs": [
        {
          "internalType": "address",
          "name": "recipient",
          "type": "address"
        }
      ],
      "name": "mintNFT",
      "outputs": [
        {
          "internalType": "uint256",
          "name": "",
          "type": "uint256"
        }
      ],
      "stateMutability": "nonpayable",
      "type": "function"
    },
    {
      "inputs": [
        {
          "internalType": "address",
          "name": "recipient",
          "type": "address"
        },
        {
          "internalType": "string",
          "name": "newTokenURI",
          "type": "string"
        }
      ],
      "name": "mintNFT",
      "outputs": [
        {
          "internalType": "uint256",
          "name": "",
          "type": "uint256"
        }
      ],
      "stateMutability": "nonpayable",
      "type": "function"
    },
    {
      "inputs": [],
      "name": "name",
      "outputs": [
        {
          "internalType": "string",
          "name": "",
          "type": "string"
        }
      ],
      "stateMutability": "view",
      "type": "function"
    },
    {
      "inputs": [],
      "name": "owner",
      "outputs": [
        {
          "internalType": "address",
          "name": "",
          "type": "address"
        }
      ],
      "stateMutability": "view",
      "type": "function"
    },
    {
      "inputs": [
        {
          "internalType": "uint256",
          "name": "tokenId",
          "type": "uint256"
        }
      ],
      "name": "ownerOf",
      "outputs": [
        {
          "internalType": "address",
          "name": "",
          "type": "address"
        }
      ],
      "stateMutability": "view",
      "type": "function"
    },
    {
      "inputs": [],
      "name": "renounceOwnership",
      "outputs": [],
      "stateMutability": "nonpayable",
      "type": "function"
    },
    {
      "inputs": [
        {
          "internalType": "address",
          "name": "from",
          "type": "address"
        },
        {
          "internalType": "address",
          "name": "to",
          "type": "address"
        },
        {
          "internalType": "uint256",
          "name": "tokenId",
          "type": "uint256"
        }
      ],
      "name": "safeTransferFrom",
      "outputs": [],
      "stateMutability": "nonpayable",
      "type": "function"
    },
    {
      "inputs": [
        {
          "internalType": "address",
          "name": "from",
          "type": "address"
        },
        {
          "internalType": "address",
          "name": "to",
          "type": "address"
        },
        {
          "internalType": "uint256",
          "name": "tokenId",
          "type": "uint256"
        },
        {
          "internalType": "bytes",
          "name": "data",
          "type": "bytes"
        }
      ],
      "name": "safeTransferFrom",
      "outputs": [],
      "stateMutability": "nonpayable",
      "type": "function"
    },
    {
      "inputs": [
        {
          "internalType": "address",
          "name": "operator",
          "type": "address"
        },
        {
          "internalType": "bool",
          "name": "approved",
          "type": "bool"
        }
      ],
      "name": "setApprovalForAll",
      "outputs": [],
      "stateMutability": "nonpayable",
      "type": "function"
    },
    {
      "inputs": [
        {
          "internalType": "address",
          "name": "operator",
          "type": "address"
        },
        {
          "internalType": "bool",
          "name": "isApproved",
          "type": "bool"
        }
      ],
      "name": "setApprovedOperator",
      "outputs": [],
      "stateMutability": "nonpayable",
      "type": "function"
    },
    {
      "inputs": [
        {
          "internalType": "string",
          "name": "baseURI",
          "type": "string"
        }
      ],
      "name": "setBaseURI",
      "outputs": [],
      "stateMutability": "nonpayable",
      "type": "function"
    },
    {
      "inputs": [
        {
          "internalType": "uint256",
          "name": "startId",
          "type": "uint256"
        },
        {
          "internalType": "uint256",
          "name": "endId",
          "type": "uint256"
        },
        {
          "internalType": "string",
          "name": "baseURI",
          "type": "string"
        }
      ],
      "name": "setTokenURIByIdRange",
      "outputs": [],
      "stateMutability": "nonpayable",
      "type": "function"
    },
    {
      "inputs": [
        {
          "internalType": "bytes4",
          "name": "interfaceId",
          "type": "bytes4"
        }
      ],
      "name": "supportsInterface",
      "outputs": [
        {
          "internalType": "bool",
          "name": "",
          "type": "bool"
        }
      ],
      "stateMutability": "view",
      "type": "function"
    },
    {
      "inputs": [],
      "name": "symbol",
      "outputs": [
        {
          "internalType": "string",
          "name": "",
          "type": "string"
        }
      ],
      "stateMutability": "view",
      "type": "function"
    },
    {
      "inputs": [
        {
          "internalType": "uint256",
          "name": "tokenId",
          "type": "uint256"
        }
      ],
      "name": "tokenURI",
      "outputs": [
        {
          "internalType": "string",
          "name": "",
          "type": "string"
        }
      ],
      "stateMutability": "view",
      "type": "function"
    },
    {
      "inputs": [
        {
          "internalType": "address",
          "name": "from",
          "type": "address"
        },
        {
          "internalType": "address",
          "name": "to",
          "type": "address"
        },
        {
          "internalType": "uint256",
          "name": "tokenId",
          "type": "uint256"
        }
      ],
      "name": "transferFrom",
      "outputs": [],
      "stateMutability": "nonpayable",
      "type": "function"
    },
    {
      "inputs": [
        {
          "internalType": "address",
          "name": "newOwner",
          "type": "address"
        }
      ],
      "name": "transferOwnership",
      "outputs": [],
      "stateMutability": "nonpayable",
      "type": "function"
    },
    {
      "inputs": [
        {
          "internalType": "uint256",
          "name": "tokenId",
          "type": "uint256"
        },
        {
          "internalType": "string",
          "name": "_tokenURI",
          "type": "string"
        },
        {
          "internalType": "address",
          "name": "receiver",
          "type": "address"
        }
      ],
      "name": "withdrawNFT",
      "outputs": [
        {
          "internalType": "uint256",
          "name": "",
          "type": "uint256"
        }
      ],
      "stateMutability": "nonpayable",
      "type": "function"
    }
  ],
  "bytecode": "0x6080604052604051806080016040528060518152602001620040c060519139600a90816200002e91906200043d565b503480156200003c57600080fd5b506040518060400160405280600581526020017f4c756374710000000000000000000000000000000000000000000000000000008152506040518060400160405280600481526020017f4c4e4654000000000000000000000000000000000000000000000000000000008152508160009081620000ba91906200043d565b508060019081620000cc91906200043d565b505050620000ef620000e3620000f560201b60201c565b620000fd60201b60201c565b62000524565b600033905090565b6000600660009054906101000a900473ffffffffffffffffffffffffffffffffffffffff16905081600660006101000a81548173ffffffffffffffffffffffffffffffffffffffff021916908373ffffffffffffffffffffffffffffffffffffffff1602179055508173ffffffffffffffffffffffffffffffffffffffff168173ffffffffffffffffffffffffffffffffffffffff167f8be0079c531659141344cd1fd0a4f28419497f9722a3daafe3b4186f6b6457e060405160405180910390a35050565b600081519050919050565b7f4e487b7100000000000000000000000000000000000000000000000000000000600052604160045260246000fd5b7f4e487b7100000000000000000000000000000000000000000000000000000000600052602260045260246000fd5b600060028204905060018216806200024557607f821691505b6020821081036200025b576200025a620001fd565b5b50919050565b60008190508160005260206000209050919050565b60006020601f8301049050919050565b600082821b905092915050565b600060088302620002c57fffffffffffffffffffffffffffffffffffffffffffffffffffffffffffffffff8262000286565b620002d1868362000286565b95508019841693508086168417925050509392505050565b6000819050919050565b6000819050919050565b60006200031e620003186200031284620002e9565b620002f3565b620002e9565b9050919050565b6000819050919050565b6200033a83620002fd565b62000352620003498262000325565b84845462000293565b825550505050565b600090565b620003696200035a565b620003768184846200032f565b505050565b5b818110156200039e57620003926000826200035f565b6001810190506200037c565b5050565b601f821115620003ed57620003b78162000261565b620003c28462000276565b81016020851015620003d2578190505b620003ea620003e18562000276565b8301826200037b565b50505b505050565b600082821c905092915050565b60006200041260001984600802620003f2565b1980831691505092915050565b60006200042d8383620003ff565b9150826002028217905092915050565b6200044882620001c3565b67ffffffffffffffff811115620004645762000463620001ce565b5b6200047082546200022c565b6200047d828285620003a2565b600060209050601f831160018114620004b55760008415620004a0578287015190505b620004ac85826200041f565b8655506200051c565b601f198416620004c58662000261565b60005b82811015620004ef57848901518255600182019150602085019450602081019050620004c8565b868310156200050f57848901516200050b601f891682620003ff565b8355505b6001600288020188555050505b505050505050565b613b8c80620005346000396000f3fe608060405234801561001057600080fd5b506004361061018e5760003560e01c806370a08231116100de578063c87b56dd11610097578063ce8d436811610071578063ce8d436814610491578063e985e9c5146104c1578063eacabe14146104f1578063f2fde38b146105215761018e565b8063c87b56dd14610401578063ccb6baea14610431578063ce18da17146104615761018e565b806370a0823114610353578063715018a6146103835780638da5cb5b1461038d57806395d89b41146103ab578063a22cb465146103c9578063b88d4fde146103e55761018e565b80632890e0d71161014b578063523f895c11610125578063523f895c146102bb57806354ba0f27146102d757806355f804b3146103075780636352211e146103235761018e565b80632890e0d7146102675780633c5a61531461028357806342842e0e1461029f5761018e565b806301ffc9a71461019357806302d0c7c5146101c357806306fdde03146101e1578063081812fc146101ff578063095ea7b31461022f57806323b872dd1461024b575b600080fd5b6101ad60048036038101906101a891906124d8565b61053d565b6040516101ba9190612520565b60405180910390f35b6101cb61061f565b6040516101d89190612554565b60405180910390f35b6101e9610630565b6040516101f691906125ff565b60405180910390f35b6102196004803603810190610214919061264d565b6106c2565b60405161022691906126bb565b60405180910390f35b61024960048036038101906102449190612702565b610708565b005b61026560048036038101906102609190612742565b61081f565b005b610281600480360381019061027c919061264d565b61087f565b005b61029d600480360381019061029891906127c1565b6108db565b005b6102b960048036038101906102b49190612742565b6109ad565b005b6102d560048036038101906102d09190612936565b6109cd565b005b6102f160048036038101906102ec91906129a5565b610a77565b6040516102fe9190612554565b60405180910390f35b610321600480360381019061031c91906129d2565b610b74565b005b61033d6004803603810190610338919061264d565b610b8f565b60405161034a91906126bb565b60405180910390f35b61036d600480360381019061036891906129a5565b610c15565b60405161037a9190612554565b60405180910390f35b61038b610ccc565b005b610395610ce0565b6040516103a291906126bb565b60405180910390f35b6103b3610d0a565b6040516103c091906125ff565b60405180910390f35b6103e360048036038101906103de91906127c1565b610d9c565b005b6103ff60048036038101906103fa9190612abc565b610db2565b005b61041b6004803603810190610416919061264d565b610e14565b60405161042891906125ff565b60405180910390f35b61044b6004803603810190610446919061264d565b610f5f565b6040516104589190612520565b60405180910390f35b61047b60048036038101906104769190612b3f565b610f71565b6040516104889190612554565b60405180910390f35b6104ab60048036038101906104a691906129a5565b610fa1565b6040516104b89190612520565b60405180910390f35b6104db60048036038101906104d69190612bae565b610fc1565b6040516104e89190612520565b60405180910390f35b61050b60048036038101906105069190612bee565b611055565b6040516105189190612554565b60405180910390f35b61053b600480360381019061053691906129a5565b61115d565b005b60007f80ac58cd000000000000000000000000000000000000000000000000000000007bffffffffffffffffffffffffffffffffffffffffffffffffffffffff1916827bffffffffffffffffffffffffffffffffffffffffffffffffffffffff1916148061060857507f5b5e139f000000000000000000000000000000000000000000000000000000007bffffffffffffffffffffffffffffffffffffffffffffffffffffffff1916827bffffffffffffffffffffffffffffffffffffffffffffffffffffffff1916145b806106185750610617826111e0565b5b9050919050565b600061062b600761124a565b905090565b60606000805461063f90612c79565b80601f016020809104026020016040519081016040528092919081815260200182805461066b90612c79565b80156106b85780601f1061068d576101008083540402835291602001916106b8565b820191906000526020600020905b81548152906001019060200180831161069b57829003601f168201915b5050505050905090565b60006106cd82611258565b6004600083815260200190815260200160002060009054906101000a900473ffffffffffffffffffffffffffffffffffffffff169050919050565b600061071382610b8f565b90508073ffffffffffffffffffffffffffffffffffffffff168373ffffffffffffffffffffffffffffffffffffffff1603610783576040517f08c379a000000000000000000000000000000000000000000000000000000000815260040161077a90612d1c565b60405180910390fd5b8073ffffffffffffffffffffffffffffffffffffffff166107a26112a3565b73ffffffffffffffffffffffffffffffffffffffff1614806107d157506107d0816107cb6112a3565b610fc1565b5b610810576040517f08c379a000000000000000000000000000000000000000000000000000000000815260040161080790612dae565b60405180910390fd5b61081a83836112ab565b505050565b61083061082a6112a3565b82611364565b61086f576040517f08c379a000000000000000000000000000000000000000000000000000000000815260040161086690612e40565b60405180910390fd5b61087a8383836113f9565b505050565b61089061088a6112a3565b82611364565b6108cf576040517f08c379a00000000000000000000000000000000000000000000000000000000081526004016108c690612ed2565b60405180910390fd5b6108d8816116f2565b50565b6108e3611840565b600073ffffffffffffffffffffffffffffffffffffffff168273ffffffffffffffffffffffffffffffffffffffff1603610952576040517f08c379a000000000000000000000000000000000000000000000000000000000815260040161094990612f64565b60405180910390fd5b80600960008473ffffffffffffffffffffffffffffffffffffffff1673ffffffffffffffffffffffffffffffffffffffff16815260200190815260200160002060006101000a81548160ff0219169083151502179055505050565b6109c883838360405180602001604052806000815250610db2565b505050565b6109d5611840565b818310610a17576040517f08c379a0000000000000000000000000000000000000000000000000000000008152600401610a0e90612ff6565b60405180910390fd5b60008390505b82811015610a7157600082610a31836118be565b604051602001610a4292919061309e565b6040516020818303038152906040529050610a5d828261198c565b508080610a69906130fc565b915050610a1d565b50505050565b6000610a81610ce0565b73ffffffffffffffffffffffffffffffffffffffff163373ffffffffffffffffffffffffffffffffffffffff161480610b0a575060011515600960003373ffffffffffffffffffffffffffffffffffffffff1673ffffffffffffffffffffffffffffffffffffffff16815260200190815260200160002060009054906101000a900460ff161515145b610b49576040517f08c379a0000000000000000000000000000000000000000000000000000000008152600401610b40906131b6565b60405180910390fd5b6000610b55600761124a565b9050610b6160076119f9565b610b6b8382611a0f565b80915050919050565b610b7c611840565b80600a9081610b8b9190613382565b5050565b600080610b9b83611a2d565b9050600073ffffffffffffffffffffffffffffffffffffffff168173ffffffffffffffffffffffffffffffffffffffff1603610c0c576040517f08c379a0000000000000000000000000000000000000000000000000000000008152600401610c03906134a0565b60405180910390fd5b80915050919050565b60008073ffffffffffffffffffffffffffffffffffffffff168273ffffffffffffffffffffffffffffffffffffffff1603610c85576040517f08c379a0000000000000000000000000000000000000000000000000000000008152600401610c7c90613532565b60405180910390fd5b600360008373ffffffffffffffffffffffffffffffffffffffff1673ffffffffffffffffffffffffffffffffffffffff168152602001908152602001600020549050919050565b610cd4611840565b610cde6000611a6a565b565b6000600660009054906101000a900473ffffffffffffffffffffffffffffffffffffffff16905090565b606060018054610d1990612c79565b80601f0160208091040260200160405190810160405280929190818152602001828054610d4590612c79565b8015610d925780601f10610d6757610100808354040283529160200191610d92565b820191906000526020600020905b815481529060010190602001808311610d7557829003601f168201915b5050505050905090565b610dae610da76112a3565b8383611b30565b5050565b610dc3610dbd6112a3565b83611364565b610e02576040517f08c379a0000000000000000000000000000000000000000000000000000000008152600401610df990612e40565b60405180910390fd5b610e0e84848484611c9c565b50505050565b6060610e1f82611cf8565b610e5e576040517f08c379a0000000000000000000000000000000000000000000000000000000008152600401610e55906135c4565b60405180910390fd5b6000610e68611d39565b90506000600860008581526020019081526020016000208054610e8a90612c79565b80601f0160208091040260200160405190810160405280929190818152602001828054610eb690612c79565b8015610f035780601f10610ed857610100808354040283529160200191610f03565b820191906000526020600020905b815481529060010190602001808311610ee657829003601f168201915b5050505050905060008251118015610f1c575060008151145b15610f545781610f2b856118be565b604051602001610f3c92919061309e565b60405160208183030381529060405292505050610f5a565b80925050505b919050565b6000610f6a82611cf8565b9050919050565b6000610f7b611840565b610f85848461198c565b610f97610f906112a3565b83866109ad565b8390509392505050565b60096020528060005260406000206000915054906101000a900460ff1681565b6000600560008473ffffffffffffffffffffffffffffffffffffffff1673ffffffffffffffffffffffffffffffffffffffff16815260200190815260200160002060008373ffffffffffffffffffffffffffffffffffffffff1673ffffffffffffffffffffffffffffffffffffffff16815260200190815260200160002060009054906101000a900460ff16905092915050565b600061105f610ce0565b73ffffffffffffffffffffffffffffffffffffffff163373ffffffffffffffffffffffffffffffffffffffff1614806110e8575060011515600960003373ffffffffffffffffffffffffffffffffffffffff1673ffffffffffffffffffffffffffffffffffffffff16815260200190815260200160002060009054906101000a900460ff161515145b611127576040517f08c379a000000000000000000000000000000000000000000000000000000000815260040161111e906131b6565b60405180910390fd5b6000611133600761124a565b905061113f60076119f9565b6111498482611a0f565b611153818461198c565b8091505092915050565b611165611840565b600073ffffffffffffffffffffffffffffffffffffffff168173ffffffffffffffffffffffffffffffffffffffff16036111d4576040517f08c379a00000000000000000000000000000000000000000000000000000000081526004016111cb90613656565b60405180910390fd5b6111dd81611a6a565b50565b60007f01ffc9a7000000000000000000000000000000000000000000000000000000007bffffffffffffffffffffffffffffffffffffffffffffffffffffffff1916827bffffffffffffffffffffffffffffffffffffffffffffffffffffffff1916149050919050565b600081600001549050919050565b61126181611cf8565b6112a0576040517f08c379a0000000000000000000000000000000000000000000000000000000008152600401611297906134a0565b60405180910390fd5b50565b600033905090565b816004600083815260200190815260200160002060006101000a81548173ffffffffffffffffffffffffffffffffffffffff021916908373ffffffffffffffffffffffffffffffffffffffff160217905550808273ffffffffffffffffffffffffffffffffffffffff1661131e83610b8f565b73ffffffffffffffffffffffffffffffffffffffff167f8c5be1e5ebec7d5bd14f71427d1e84f3dd0314c0f7b2291e5b200ac8c7c3b92560405160405180910390a45050565b60008061137083610b8f565b90508073ffffffffffffffffffffffffffffffffffffffff168473ffffffffffffffffffffffffffffffffffffffff1614806113b257506113b18185610fc1565b5b806113f057508373ffffffffffffffffffffffffffffffffffffffff166113d8846106c2565b73ffffffffffffffffffffffffffffffffffffffff16145b91505092915050565b8273ffffffffffffffffffffffffffffffffffffffff1661141982610b8f565b73ffffffffffffffffffffffffffffffffffffffff161461146f576040517f08c379a0000000000000000000000000000000000000000000000000000000008152600401611466906136e8565b60405180910390fd5b600073ffffffffffffffffffffffffffffffffffffffff168273ffffffffffffffffffffffffffffffffffffffff16036114de576040517f08c379a00000000000000000000000000000000000000000000000000000000081526004016114d59061377a565b60405180910390fd5b6114eb8383836001611dcb565b8273ffffffffffffffffffffffffffffffffffffffff1661150b82610b8f565b73ffffffffffffffffffffffffffffffffffffffff1614611561576040517f08c379a0000000000000000000000000000000000000000000000000000000008152600401611558906136e8565b60405180910390fd5b6004600082815260200190815260200160002060006101000a81549073ffffffffffffffffffffffffffffffffffffffff02191690556001600360008573ffffffffffffffffffffffffffffffffffffffff1673ffffffffffffffffffffffffffffffffffffffff168152602001908152602001600020600082825403925050819055506001600360008473ffffffffffffffffffffffffffffffffffffffff1673ffffffffffffffffffffffffffffffffffffffff16815260200190815260200160002060008282540192505081905550816002600083815260200190815260200160002060006101000a81548173ffffffffffffffffffffffffffffffffffffffff021916908373ffffffffffffffffffffffffffffffffffffffff160217905550808273ffffffffffffffffffffffffffffffffffffffff168473ffffffffffffffffffffffffffffffffffffffff167fddf252ad1be2c89b69c2b068fc378daa952ba7f163c4a11628f55a4df523b3ef60405160405180910390a46116ed8383836001611ef1565b505050565b60006116fd82610b8f565b905061170d816000846001611dcb565b61171682610b8f565b90506004600083815260200190815260200160002060006101000a81549073ffffffffffffffffffffffffffffffffffffffff02191690556001600360008373ffffffffffffffffffffffffffffffffffffffff1673ffffffffffffffffffffffffffffffffffffffff168152602001908152602001600020600082825403925050819055506002600083815260200190815260200160002060006101000a81549073ffffffffffffffffffffffffffffffffffffffff021916905581600073ffffffffffffffffffffffffffffffffffffffff168273ffffffffffffffffffffffffffffffffffffffff167fddf252ad1be2c89b69c2b068fc378daa952ba7f163c4a11628f55a4df523b3ef60405160405180910390a461183c816000846001611ef1565b5050565b6118486112a3565b73ffffffffffffffffffffffffffffffffffffffff16611866610ce0565b73ffffffffffffffffffffffffffffffffffffffff16146118bc576040517f08c379a00000000000000000000000000000000000000000000000000000000081526004016118b3906137e6565b60405180910390fd5b565b6060600060016118cd84611ef7565b01905060008167ffffffffffffffff8111156118ec576118eb61280b565b5b6040519080825280601f01601f19166020018201604052801561191e5781602001600182028036833780820191505090505b509050600082602001820190505b600115611981578080600190039150507f3031323334353637383961626364656600000000000000000000000000000000600a86061a8153600a858161197557611974613806565b5b0494506000850361192c575b819350505050919050565b61199582611cf8565b6119d4576040517f08c379a00000000000000000000000000000000000000000000000000000000081526004016119cb906135c4565b60405180910390fd5b806008600084815260200190815260200160002090816119f49190613382565b505050565b6001816000016000828254019250508190555050565b611a2982826040518060200160405280600081525061204a565b5050565b60006002600083815260200190815260200160002060009054906101000a900473ffffffffffffffffffffffffffffffffffffffff169050919050565b6000600660009054906101000a900473ffffffffffffffffffffffffffffffffffffffff16905081600660006101000a81548173ffffffffffffffffffffffffffffffffffffffff021916908373ffffffffffffffffffffffffffffffffffffffff1602179055508173ffffffffffffffffffffffffffffffffffffffff168173ffffffffffffffffffffffffffffffffffffffff167f8be0079c531659141344cd1fd0a4f28419497f9722a3daafe3b4186f6b6457e060405160405180910390a35050565b8173ffffffffffffffffffffffffffffffffffffffff168373ffffffffffffffffffffffffffffffffffffffff1603611b9e576040517f08c379a0000000000000000000000000000000000000000000000000000000008152600401611b9590613881565b60405180910390fd5b80600560008573ffffffffffffffffffffffffffffffffffffffff1673ffffffffffffffffffffffffffffffffffffffff16815260200190815260200160002060008473ffffffffffffffffffffffffffffffffffffffff1673ffffffffffffffffffffffffffffffffffffffff16815260200190815260200160002060006101000a81548160ff0219169083151502179055508173ffffffffffffffffffffffffffffffffffffffff168373ffffffffffffffffffffffffffffffffffffffff167f17307eab39ab6107e8899845ad3d59bd9653f200f220920489ca2b5937696c3183604051611c8f9190612520565b60405180910390a3505050565b611ca78484846113f9565b611cb3848484846120a5565b611cf2576040517f08c379a0000000000000000000000000000000000000000000000000000000008152600401611ce990613913565b60405180910390fd5b50505050565b60008073ffffffffffffffffffffffffffffffffffffffff16611d1a83611a2d565b73ffffffffffffffffffffffffffffffffffffffff1614159050919050565b6060600a8054611d4890612c79565b80601f0160208091040260200160405190810160405280929190818152602001828054611d7490612c79565b8015611dc15780601f10611d9657610100808354040283529160200191611dc1565b820191906000526020600020905b815481529060010190602001808311611da457829003601f168201915b5050505050905090565b6001811115611eeb57600073ffffffffffffffffffffffffffffffffffffffff168473ffffffffffffffffffffffffffffffffffffffff1614611e5f5780600360008673ffffffffffffffffffffffffffffffffffffffff1673ffffffffffffffffffffffffffffffffffffffff1681526020019081526020016000206000828254611e579190613933565b925050819055505b600073ffffffffffffffffffffffffffffffffffffffff168373ffffffffffffffffffffffffffffffffffffffff1614611eea5780600360008573ffffffffffffffffffffffffffffffffffffffff1673ffffffffffffffffffffffffffffffffffffffff1681526020019081526020016000206000828254611ee29190613967565b925050819055505b5b50505050565b50505050565b600080600090507a184f03e93ff9f4daa797ed6e38ed64bf6a1f0100000000000000008310611f55577a184f03e93ff9f4daa797ed6e38ed64bf6a1f0100000000000000008381611f4b57611f4a613806565b5b0492506040810190505b6d04ee2d6d415b85acef81000000008310611f92576d04ee2d6d415b85acef81000000008381611f8857611f87613806565b5b0492506020810190505b662386f26fc100008310611fc157662386f26fc100008381611fb757611fb6613806565b5b0492506010810190505b6305f5e1008310611fea576305f5e1008381611fe057611fdf613806565b5b0492506008810190505b612710831061200f57612710838161200557612004613806565b5b0492506004810190505b60648310612032576064838161202857612027613806565b5b0492506002810190505b600a8310612041576001810190505b80915050919050565b612054838361222c565b61206160008484846120a5565b6120a0576040517f08c379a000000000000000000000000000000000000000000000000000000000815260040161209790613913565b60405180910390fd5b505050565b60006120c68473ffffffffffffffffffffffffffffffffffffffff16612449565b1561221f578373ffffffffffffffffffffffffffffffffffffffff1663150b7a026120ef6112a3565b8786866040518563ffffffff1660e01b815260040161211194939291906139f0565b6020604051808303816000875af192505050801561214d57506040513d601f19601f8201168201806040525081019061214a9190613a51565b60015b6121cf573d806000811461217d576040519150601f19603f3d011682016040523d82523d6000602084013e612182565b606091505b5060008151036121c7576040517f08c379a00000000000000000000000000000000000000000000000000000000081526004016121be90613913565b60405180910390fd5b805181602001fd5b63150b7a0260e01b7bffffffffffffffffffffffffffffffffffffffffffffffffffffffff1916817bffffffffffffffffffffffffffffffffffffffffffffffffffffffff191614915050612224565b600190505b949350505050565b600073ffffffffffffffffffffffffffffffffffffffff168273ffffffffffffffffffffffffffffffffffffffff160361229b576040517f08c379a000000000000000000000000000000000000000000000000000000000815260040161229290613aca565b60405180910390fd5b6122a481611cf8565b156122e4576040517f08c379a00000000000000000000000000000000000000000000000000000000081526004016122db90613b36565b60405180910390fd5b6122f2600083836001611dcb565b6122fb81611cf8565b1561233b576040517f08c379a000000000000000000000000000000000000000000000000000000000815260040161233290613b36565b60405180910390fd5b6001600360008473ffffffffffffffffffffffffffffffffffffffff1673ffffffffffffffffffffffffffffffffffffffff16815260200190815260200160002060008282540192505081905550816002600083815260200190815260200160002060006101000a81548173ffffffffffffffffffffffffffffffffffffffff021916908373ffffffffffffffffffffffffffffffffffffffff160217905550808273ffffffffffffffffffffffffffffffffffffffff16600073ffffffffffffffffffffffffffffffffffffffff167fddf252ad1be2c89b69c2b068fc378daa952ba7f163c4a11628f55a4df523b3ef60405160405180910390a4612445600083836001611ef1565b5050565b6000808273ffffffffffffffffffffffffffffffffffffffff163b119050919050565b6000604051905090565b600080fd5b600080fd5b60007fffffffff0000000000000000000000000000000000000000000000000000000082169050919050565b6124b581612480565b81146124c057600080fd5b50565b6000813590506124d2816124ac565b92915050565b6000602082840312156124ee576124ed612476565b5b60006124fc848285016124c3565b91505092915050565b60008115159050919050565b61251a81612505565b82525050565b60006020820190506125356000830184612511565b92915050565b6000819050919050565b61254e8161253b565b82525050565b60006020820190506125696000830184612545565b92915050565b600081519050919050565b600082825260208201905092915050565b60005b838110156125a957808201518184015260208101905061258e565b60008484015250505050565b6000601f19601f8301169050919050565b60006125d18261256f565b6125db818561257a565b93506125eb81856020860161258b565b6125f4816125b5565b840191505092915050565b6000602082019050818103600083015261261981846125c6565b905092915050565b61262a8161253b565b811461263557600080fd5b50565b60008135905061264781612621565b92915050565b60006020828403121561266357612662612476565b5b600061267184828501612638565b91505092915050565b600073ffffffffffffffffffffffffffffffffffffffff82169050919050565b60006126a58261267a565b9050919050565b6126b58161269a565b82525050565b60006020820190506126d060008301846126ac565b92915050565b6126df8161269a565b81146126ea57600080fd5b50565b6000813590506126fc816126d6565b92915050565b6000806040838503121561271957612718612476565b5b6000612727858286016126ed565b925050602061273885828601612638565b9150509250929050565b60008060006060848603121561275b5761275a612476565b5b6000612769868287016126ed565b935050602061277a868287016126ed565b925050604061278b86828701612638565b9150509250925092565b61279e81612505565b81146127a957600080fd5b50565b6000813590506127bb81612795565b92915050565b600080604083850312156127d8576127d7612476565b5b60006127e6858286016126ed565b92505060206127f7858286016127ac565b9150509250929050565b600080fd5b600080fd5b7f4e487b7100000000000000000000000000000000000000000000000000000000600052604160045260246000fd5b612843826125b5565b810181811067ffffffffffffffff821117156128625761286161280b565b5b80604052505050565b600061287561246c565b9050612881828261283a565b919050565b600067ffffffffffffffff8211156128a1576128a061280b565b5b6128aa826125b5565b9050602081019050919050565b82818337600083830152505050565b60006128d96128d484612886565b61286b565b9050828152602081018484840111156128f5576128f4612806565b5b6129008482856128b7565b509392505050565b600082601f83011261291d5761291c612801565b5b813561292d8482602086016128c6565b91505092915050565b60008060006060848603121561294f5761294e612476565b5b600061295d86828701612638565b935050602061296e86828701612638565b925050604084013567ffffffffffffffff81111561298f5761298e61247b565b5b61299b86828701612908565b9150509250925092565b6000602082840312156129bb576129ba612476565b5b60006129c9848285016126ed565b91505092915050565b6000602082840312156129e8576129e7612476565b5b600082013567ffffffffffffffff811115612a0657612a0561247b565b5b612a1284828501612908565b91505092915050565b600067ffffffffffffffff821115612a3657612a3561280b565b5b612a3f826125b5565b9050602081019050919050565b6000612a5f612a5a84612a1b565b61286b565b905082815260208101848484011115612a7b57612a7a612806565b5b612a868482856128b7565b509392505050565b600082601f830112612aa357612aa2612801565b5b8135612ab3848260208601612a4c565b91505092915050565b60008060008060808587031215612ad657612ad5612476565b5b6000612ae4878288016126ed565b9450506020612af5878288016126ed565b9350506040612b0687828801612638565b925050606085013567ffffffffffffffff811115612b2757612b2661247b565b5b612b3387828801612a8e565b91505092959194509250565b600080600060608486031215612b5857612b57612476565b5b6000612b6686828701612638565b935050602084013567ffffffffffffffff811115612b8757612b8661247b565b5b612b9386828701612908565b9250506040612ba4868287016126ed565b9150509250925092565b60008060408385031215612bc557612bc4612476565b5b6000612bd3858286016126ed565b9250506020612be4858286016126ed565b9150509250929050565b60008060408385031215612c0557612c04612476565b5b6000612c13858286016126ed565b925050602083013567ffffffffffffffff811115612c3457612c3361247b565b5b612c4085828601612908565b9150509250929050565b7f4e487b7100000000000000000000000000000000000000000000000000000000600052602260045260246000fd5b60006002820490506001821680612c9157607f821691505b602082108103612ca457612ca3612c4a565b5b50919050565b7f4552433732313a20617070726f76616c20746f2063757272656e74206f776e6560008201527f7200000000000000000000000000000000000000000000000000000000000000602082015250565b6000612d0660218361257a565b9150612d1182612caa565b604082019050919050565b60006020820190508181036000830152612d3581612cf9565b9050919050565b7f4552433732313a20617070726f76652063616c6c6572206973206e6f7420746f60008201527f6b656e206f776e6572206f7220617070726f76656420666f7220616c6c000000602082015250565b6000612d98603d8361257a565b9150612da382612d3c565b604082019050919050565b60006020820190508181036000830152612dc781612d8b565b9050919050565b7f4552433732313a2063616c6c6572206973206e6f7420746f6b656e206f776e6560008201527f72206f7220617070726f76656400000000000000000000000000000000000000602082015250565b6000612e2a602d8361257a565b9150612e3582612dce565b604082019050919050565b60006020820190508181036000830152612e5981612e1d565b9050919050565b7f4552433732314275726e61626c653a2063616c6c6572206973206e6f74206f7760008201527f6e6572206e6f7220617070726f76656400000000000000000000000000000000602082015250565b6000612ebc60308361257a565b9150612ec782612e60565b604082019050919050565b60006020820190508181036000830152612eeb81612eaf565b9050919050565b7f4d6f6f6e42656173743a206f70657261746f7220697320746865207a65726f2060008201527f6164647265737300000000000000000000000000000000000000000000000000602082015250565b6000612f4e60278361257a565b9150612f5982612ef2565b604082019050919050565b60006020820190508181036000830152612f7d81612f41565b9050919050565b7f4d6f6f6e42656173743a2053746172744944206d757374206265206c6573732060008201527f7468616e20456e64494400000000000000000000000000000000000000000000602082015250565b6000612fe0602a8361257a565b9150612feb82612f84565b604082019050919050565b6000602082019050818103600083015261300f81612fd3565b9050919050565b600081905092915050565b600061302c8261256f565b6130368185613016565b935061304681856020860161258b565b80840191505092915050565b7f2e6a736f6e000000000000000000000000000000000000000000000000000000600082015250565b6000613088600583613016565b915061309382613052565b600582019050919050565b60006130aa8285613021565b91506130b68284613021565b91506130c18261307b565b91508190509392505050565b7f4e487b7100000000000000000000000000000000000000000000000000000000600052601160045260246000fd5b60006131078261253b565b91507fffffffffffffffffffffffffffffffffffffffffffffffffffffffffffffffff8203613139576131386130cd565b5b600182019050919050565b7f4f776e61626c653a2063616c6c6572206973206e6f7420746865206f776e657260008201527f206f7220697320617070726f7665640000000000000000000000000000000000602082015250565b60006131a0602f8361257a565b91506131ab82613144565b604082019050919050565b600060208201905081810360008301526131cf81613193565b9050919050565b60008190508160005260206000209050919050565b60006020601f8301049050919050565b600082821b905092915050565b6000600883026132387fffffffffffffffffffffffffffffffffffffffffffffffffffffffffffffffff826131fb565b61324286836131fb565b95508019841693508086168417925050509392505050565b6000819050919050565b600061327f61327a6132758461253b565b61325a565b61253b565b9050919050565b6000819050919050565b61329983613264565b6132ad6132a582613286565b848454613208565b825550505050565b600090565b6132c26132b5565b6132cd818484613290565b505050565b5b818110156132f1576132e66000826132ba565b6001810190506132d3565b5050565b601f82111561333657613307816131d6565b613310846131eb565b8101602085101561331f578190505b61333361332b856131eb565b8301826132d2565b50505b505050565b600082821c905092915050565b60006133596000198460080261333b565b1980831691505092915050565b60006133728383613348565b9150826002028217905092915050565b61338b8261256f565b67ffffffffffffffff8111156133a4576133a361280b565b5b6133ae8254612c79565b6133b98282856132f5565b600060209050601f8311600181146133ec57600084156133da578287015190505b6133e48582613366565b86555061344c565b601f1984166133fa866131d6565b60005b82811015613422578489015182556001820191506020850194506020810190506133fd565b8683101561343f578489015161343b601f891682613348565b8355505b6001600288020188555050505b505050505050565b7f4552433732313a20696e76616c696420746f6b656e2049440000000000000000600082015250565b600061348a60188361257a565b915061349582613454565b602082019050919050565b600060208201905081810360008301526134b98161347d565b9050919050565b7f4552433732313a2061646472657373207a65726f206973206e6f74206120766160008201527f6c6964206f776e65720000000000000000000000000000000000000000000000602082015250565b600061351c60298361257a565b9150613527826134c0565b604082019050919050565b6000602082019050818103600083015261354b8161350f565b9050919050565b7f4552433732314d657461646174613a2055524920736574206f66206e6f6e657860008201527f697374656e7420746f6b656e0000000000000000000000000000000000000000602082015250565b60006135ae602c8361257a565b91506135b982613552565b604082019050919050565b600060208201905081810360008301526135dd816135a1565b9050919050565b7f4f776e61626c653a206e6577206f776e657220697320746865207a65726f206160008201527f6464726573730000000000000000000000000000000000000000000000000000602082015250565b600061364060268361257a565b915061364b826135e4565b604082019050919050565b6000602082019050818103600083015261366f81613633565b9050919050565b7f4552433732313a207472616e736665722066726f6d20696e636f72726563742060008201527f6f776e6572000000000000000000000000000000000000000000000000000000602082015250565b60006136d260258361257a565b91506136dd82613676565b604082019050919050565b60006020820190508181036000830152613701816136c5565b9050919050565b7f4552433732313a207472616e7366657220746f20746865207a65726f2061646460008201527f7265737300000000000000000000000000000000000000000000000000000000602082015250565b600061376460248361257a565b915061376f82613708565b604082019050919050565b6000602082019050818103600083015261379381613757565b9050919050565b7f4f776e61626c653a2063616c6c6572206973206e6f7420746865206f776e6572600082015250565b60006137d060208361257a565b91506137db8261379a565b602082019050919050565b600060208201905081810360008301526137ff816137c3565b9050919050565b7f4e487b7100000000000000000000000000000000000000000000000000000000600052601260045260246000fd5b7f4552433732313a20617070726f766520746f2063616c6c657200000000000000600082015250565b600061386b60198361257a565b915061387682613835565b602082019050919050565b6000602082019050818103600083015261389a8161385e565b9050919050565b7f4552433732313a207472616e7366657220746f206e6f6e20455243373231526560008201527f63656976657220696d706c656d656e7465720000000000000000000000000000602082015250565b60006138fd60328361257a565b9150613908826138a1565b604082019050919050565b6000602082019050818103600083015261392c816138f0565b9050919050565b600061393e8261253b565b91506139498361253b565b9250828203905081811115613961576139606130cd565b5b92915050565b60006139728261253b565b915061397d8361253b565b9250828201905080821115613995576139946130cd565b5b92915050565b600081519050919050565b600082825260208201905092915050565b60006139c28261399b565b6139cc81856139a6565b93506139dc81856020860161258b565b6139e5816125b5565b840191505092915050565b6000608082019050613a0560008301876126ac565b613a1260208301866126ac565b613a1f6040830185612545565b8181036060830152613a3181846139b7565b905095945050505050565b600081519050613a4b816124ac565b92915050565b600060208284031215613a6757613a66612476565b5b6000613a7584828501613a3c565b91505092915050565b7f4552433732313a206d696e7420746f20746865207a65726f2061646472657373600082015250565b6000613ab460208361257a565b9150613abf82613a7e565b602082019050919050565b60006020820190508181036000830152613ae381613aa7565b9050919050565b7f4552433732313a20746f6b656e20616c7265616479206d696e74656400000000600082015250565b6000613b20601c8361257a565b9150613b2b82613aea565b602082019050919050565b60006020820190508181036000830152613b4f81613b13565b905091905056fea2646970667358221220171e7b9a50725a83b1723fead74d9a8dda86201bb552a64aed327667aab4b33f64736f6c6343000811003368747470733a2f2f676174657761792e70696e6174612e636c6f75642f697066732f516d544278466d33535533706d575167477a623241705a65396f4d4436616d5a43416b795661364879764d4478422f",
  "linkReferences": {},
  "deployedLinkReferences": {}
}